{"abi":[{"type":"constructor","inputs":[{"name":"initialOwner","type":"address","internalType":"address"}],"stateMutability":"nonpayable"},{"type":"function","name":"createPlan","inputs":[{"name":"planId","type":"bytes32","internalType":"bytes32"},{"name":"dailyUsdCapMicros","type":"uint256","internalType":"uint256"},{"name":"periodSeconds","type":"uint256","internalType":"uint256"}],"outputs":[],"stateMutability":"nonpayable"},{"type":"function","name":"extendSubscription","inputs":[{"name":"user","type":"address","internalType":"address"},{"name":"planId","type":"bytes32","internalType":"bytes32"},{"name":"extraSeconds","type":"uint256","internalType":"uint256"}],"outputs":[],"stateMutability":"nonpayable"},{"type":"function","name":"isActive","inputs":[{"name":"user","type":"address","internalType":"address"},{"name":"planId","type":"bytes32","internalType":"bytes32"}],"outputs":[{"name":"","type":"bool","internalType":"bool"}],"stateMutability":"view"},{"type":"function","name":"owner","inputs":[],"outputs":[{"name":"","type":"address","internalType":"address"}],"stateMutability":"view"},{"type":"function","name":"plans","inputs":[{"name":"","type":"bytes32","internalType":"bytes32"}],"outputs":[{"name":"dailyUsdCapMicros","type":"uint256","internalType":"uint256"},{"name":"periodSeconds","type":"uint256","internalType":"uint256"},{"name":"active","type":"bool","internalType":"bool"}],"stateMutability":"view"},{"type":"function","name":"recordUsage","inputs":[{"name":"user","type":"address","internalType":"address"},{"name":"planId","type":"bytes32","internalType":"bytes32"},{"name":"usdAmountMicros","type":"uint256","internalType":"uint256"}],"outputs":[],"stateMutability":"nonpayable"},{"type":"function","name":"renounceOwnership","inputs":[],"outputs":[],"stateMutability":"nonpayable"},{"type":"function","name":"subscribe","inputs":[{"name":"user","type":"address","internalType":"address"},{"name":"planId","type":"bytes32","internalType":"bytes32"},{"name":"expiry","type":"uint256","internalType":"uint256"}],"outputs":[],"stateMutability":"nonpayable"},{"type":"function","name":"subscriptions","inputs":[{"name":"","type":"address","internalType":"address"},{"name":"","type":"bytes32","internalType":"bytes32"}],"outputs":[{"name":"","type":"uint256","internalType":"uint256"}],"stateMutability":"view"},{"type":"function","name":"transferOwnership","inputs":[{"name":"newOwner","type":"address","internalType":"address"}],"outputs":[],"stateMutability":"nonpayable"},{"type":"function","name":"updatePlan","inputs":[{"name":"planId","type":"bytes32","internalType":"bytes32"},{"name":"dailyUsdCapMicros","type":"uint256","internalType":"uint256"},{"name":"periodSeconds","type":"uint256","internalType":"uint256"},{"name":"active","type":"bool","internalType":"bool"}],"outputs":[],"stateMutability":"nonpayable"},{"type":"event","name":"OwnershipTransferred","inputs":[{"name":"previousOwner","type":"address","indexed":true,"internalType":"address"},{"name":"newOwner","type":"address","indexed":true,"internalType":"address"}],"anonymous":false},{"type":"event","name":"PlanCreated","inputs":[{"name":"planId","type":"bytes32","indexed":true,"internalType":"bytes32"},{"name":"dailyUsdCapMicros","type":"uint256","indexed":false,"internalType":"uint256"},{"name":"periodSeconds","type":"uint256","indexed":false,"internalType":"uint256"}],"anonymous":false},{"type":"event","name":"PlanUpdated","inputs":[{"name":"planId","type":"bytes32","indexed":true,"internalType":"bytes32"},{"name":"dailyUsdCapMicros","type":"uint256","indexed":false,"internalType":"uint256"},{"name":"periodSeconds","type":"uint256","indexed":false,"internalType":"uint256"},{"name":"active","type":"bool","indexed":false,"internalType":"bool"}],"anonymous":false},{"type":"event","name":"Subscribed","inputs":[{"name":"user","type":"address","indexed":true,"internalType":"address"},{"name":"planId","type":"bytes32","indexed":true,"internalType":"bytes32"},{"name":"expiry","type":"uint256","indexed":false,"internalType":"uint256"}],"anonymous":false},{"type":"event","name":"SubscriptionExtended","inputs":[{"name":"user","type":"address","indexed":true,"internalType":"address"},{"name":"planId","type":"bytes32","indexed":true,"internalType":"bytes32"},{"name":"oldExpiry","type":"uint256","indexed":false,"internalType":"uint256"},{"name":"newExpiry","type":"uint256","indexed":false,"internalType":"uint256"}],"anonymous":false},{"type":"event","name":"UsageRecorded","inputs":[{"name":"user","type":"address","indexed":true,"internalType":"address"},{"name":"planId","type":"bytes32","indexed":true,"internalType":"bytes32"},{"name":"usdAmountMicros","type":"uint256","indexed":false,"internalType":"uint256"}],"anonymous":false},{"type":"error","name":"OwnableInvalidOwner","inputs":[{"name":"owner","type":"address","internalType":"address"}]},{"type":"error","name":"OwnableUnauthorizedAccount","inputs":[{"name":"account","type":"address","internalType":"address"}]}],"bytecode":{"object":"0x608060405234801562000010575f80fd5b5060405162001269380380620012698339818101604052810190620000369190620001e9565b805f73ffffffffffffffffffffffffffffffffffffffff168173ffffffffffffffffffffffffffffffffffffffff1603620000aa575f6040517f1e4fbdf7000000000000000000000000000000000000000000000000000000008152600401620000a191906200022a565b60405180910390fd5b620000bb81620000c360201b60201c565b505062000245565b5f805f9054906101000a900473ffffffffffffffffffffffffffffffffffffffff169050815f806101000a81548173ffffffffffffffffffffffffffffffffffffffff021916908373ffffffffffffffffffffffffffffffffffffffff1602179055508173ffffffffffffffffffffffffffffffffffffffff168173ffffffffffffffffffffffffffffffffffffffff167f8be0079c531659141344cd1fd0a4f28419497f9722a3daafe3b4186f6b6457e060405160405180910390a35050565b5f80fd5b5f73ffffffffffffffffffffffffffffffffffffffff82169050919050565b5f620001b38262000188565b9050919050565b620001c581620001a7565b8114620001d0575f80fd5b50565b5f81519050620001e381620001ba565b92915050565b5f6020828403121562000201576200020062000184565b5b5f6200021084828501620001d3565b91505092915050565b6200022481620001a7565b82525050565b5f6020820190506200023f5f83018462000219565b92915050565b61101680620002535f395ff3fe608060405234801561000f575f80fd5b50600436106100a7575f3560e01c80639af2658d1161006f5780639af2658d1461014f578063aa4f26531461016b578063bc904fda1461019d578063ef3b6f19146101b9578063f2fde38b146101d5578063fa4408a4146101f1576100a7565b806361039578146100ab578063715018a6146100db57806383a6aa62146100e557806384a8f0ce146101015780638da5cb5b14610131575b5f80fd5b6100c560048036038101906100c09190610a94565b61020d565b6040516100d29190610aea565b60405180910390f35b6100e361022d565b005b6100ff60048036038101906100fa9190610b2d565b610240565b005b61011b60048036038101906101169190610a94565b61034b565b6040516101289190610b97565b60405180910390f35b610139610409565b6040516101469190610bbf565b60405180910390f35b61016960048036038101906101649190610bd8565b610430565b005b61018560048036038101906101809190610c28565b61048c565b60405161019493929190610c53565b60405180910390f35b6101b760048036038101906101b29190610cb2565b6104be565b005b6101d360048036038101906101ce9190610bd8565b61058f565b005b6101ef60048036038101906101ea9190610d16565b6106e1565b005b61020b60048036038101906102069190610bd8565b610765565b005b6002602052815f5260405f20602052805f5260405f205f91509150505481565b6102356108b4565b61023e5f61093b565b565b6102486108b4565b60015f8481526020019081526020015f206002015f9054906101000a900460ff16156102a9576040517f08c379a00000000000000000000000000000000000000000000000000000000081526004016102a090610d9b565b60405180910390fd5b60405180606001604052808381526020018281526020016001151581525060015f8581526020019081526020015f205f820151815f0155602082015181600101556040820151816002015f6101000a81548160ff021916908315150217905550905050827fd00846d1360f9676601638a37ced4b94d0b3df1ca5d9db0c193eda7ded58d206838360405161033e929190610db9565b60405180910390a2505050565b5f8060015f8481526020019081526020015f206040518060600160405290815f820154815260200160018201548152602001600282015f9054906101000a900460ff161515151581525050905080604001516103aa575f915050610403565b5f60025f8673ffffffffffffffffffffffffffffffffffffffff1673ffffffffffffffffffffffffffffffffffffffff1681526020019081526020015f205f8581526020019081526020015f2054905042811015925050505b92915050565b5f805f9054906101000a900473ffffffffffffffffffffffffffffffffffffffff16905090565b6104386108b4565b818373ffffffffffffffffffffffffffffffffffffffff167f956f957e73397934584b03b8b77dc5800f939bc8f1b6662e1bc114c03a37c47b8360405161047f9190610aea565b60405180910390a3505050565b6001602052805f5260405f205f91509050805f015490806001015490806002015f9054906101000a900460ff16905083565b6104c66108b4565b5f60015f8681526020019081526020015f2090505f816001015403610520576040517f08c379a000000000000000000000000000000000000000000000000000000000815260040161051790610e2a565b60405180910390fd5b83815f018190555082816001018190555081816002015f6101000a81548160ff021916908315150217905550847f01acec4e0552370fe583bd02178c73774e19331aee123f51e0bb57d3488c8c0b85858560405161058093929190610c53565b60405180910390a25050505050565b6105976108b4565b5f60025f8573ffffffffffffffffffffffffffffffffffffffff1673ffffffffffffffffffffffffffffffffffffffff1681526020019081526020015f205f8481526020019081526020015f205490505f8103610629576040517f08c379a000000000000000000000000000000000000000000000000000000000815260040161062090610e92565b60405180910390fd5b5f82826106369190610edd565b90508060025f8773ffffffffffffffffffffffffffffffffffffffff1673ffffffffffffffffffffffffffffffffffffffff1681526020019081526020015f205f8681526020019081526020015f2081905550838573ffffffffffffffffffffffffffffffffffffffff167f49b299cb5bf0b1a4a90f93efd9c2c8ce0e6b0a820a2b6e2fbd9f582d6cb99ec384846040516106d2929190610db9565b60405180910390a35050505050565b6106e96108b4565b5f73ffffffffffffffffffffffffffffffffffffffff168173ffffffffffffffffffffffffffffffffffffffff1603610759575f6040517f1e4fbdf70000000000000000000000000000000000000000000000000000000081526004016107509190610bbf565b60405180910390fd5b6107628161093b565b50565b61076d6108b4565b60015f8381526020019081526020015f206002015f9054906101000a900460ff166107cd576040517f08c379a00000000000000000000000000000000000000000000000000000000081526004016107c490610f5a565b60405180910390fd5b42811161080f576040517f08c379a000000000000000000000000000000000000000000000000000000000815260040161080690610fc2565b60405180910390fd5b8060025f8573ffffffffffffffffffffffffffffffffffffffff1673ffffffffffffffffffffffffffffffffffffffff1681526020019081526020015f205f8481526020019081526020015f2081905550818373ffffffffffffffffffffffffffffffffffffffff167f850113a5de081a27709e4c3171dd0a8963801b7af41fbf476a9c77acb7b624d4836040516108a79190610aea565b60405180910390a3505050565b6108bc6109fc565b73ffffffffffffffffffffffffffffffffffffffff166108da610409565b73ffffffffffffffffffffffffffffffffffffffff1614610939576108fd6109fc565b6040517f118cdaa70000000000000000000000000000000000000000000000000000000081526004016109309190610bbf565b60405180910390fd5b565b5f805f9054906101000a900473ffffffffffffffffffffffffffffffffffffffff169050815f806101000a81548173ffffffffffffffffffffffffffffffffffffffff021916908373ffffffffffffffffffffffffffffffffffffffff1602179055508173ffffffffffffffffffffffffffffffffffffffff168173ffffffffffffffffffffffffffffffffffffffff167f8be0079c531659141344cd1fd0a4f28419497f9722a3daafe3b4186f6b6457e060405160405180910390a35050565b5f33905090565b5f80fd5b5f73ffffffffffffffffffffffffffffffffffffffff82169050919050565b5f610a3082610a07565b9050919050565b610a4081610a26565b8114610a4a575f80fd5b50565b5f81359050610a5b81610a37565b92915050565b5f819050919050565b610a7381610a61565b8114610a7d575f80fd5b50565b5f81359050610a8e81610a6a565b92915050565b5f8060408385031215610aaa57610aa9610a03565b5b5f610ab785828601610a4d565b9250506020610ac885828601610a80565b9150509250929050565b5f819050919050565b610ae481610ad2565b82525050565b5f602082019050610afd5f830184610adb565b92915050565b610b0c81610ad2565b8114610b16575f80fd5b50565b5f81359050610b2781610b03565b92915050565b5f805f60608486031215610b4457610b43610a03565b5b5f610b5186828701610a80565b9350506020610b6286828701610b19565b9250506040610b7386828701610b19565b9150509250925092565b5f8115159050919050565b610b9181610b7d565b82525050565b5f602082019050610baa5f830184610b88565b92915050565b610bb981610a26565b82525050565b5f602082019050610bd25f830184610bb0565b92915050565b5f805f60608486031215610bef57610bee610a03565b5b5f610bfc86828701610a4d565b9350506020610c0d86828701610a80565b9250506040610c1e86828701610b19565b9150509250925092565b5f60208284031215610c3d57610c3c610a03565b5b5f610c4a84828501610a80565b91505092915050565b5f606082019050610c665f830186610adb565b610c736020830185610adb565b610c806040830184610b88565b949350505050565b610c9181610b7d565b8114610c9b575f80fd5b50565b5f81359050610cac81610c88565b92915050565b5f805f8060808587031215610cca57610cc9610a03565b5b5f610cd787828801610a80565b9450506020610ce887828801610b19565b9350506040610cf987828801610b19565b9250506060610d0a87828801610c9e565b91505092959194509250565b5f60208284031215610d2b57610d2a610a03565b5b5f610d3884828501610a4d565b91505092915050565b5f82825260208201905092915050565b7f706c616e206578697374730000000000000000000000000000000000000000005f82015250565b5f610d85600b83610d41565b9150610d9082610d51565b602082019050919050565b5f6020820190508181035f830152610db281610d79565b9050919050565b5f604082019050610dcc5f830185610adb565b610dd96020830184610adb565b9392505050565b7f706c616e206d697373696e6700000000000000000000000000000000000000005f82015250565b5f610e14600c83610d41565b9150610e1f82610de0565b602082019050919050565b5f6020820190508181035f830152610e4181610e08565b9050919050565b7f6e6f7420737562736372696265640000000000000000000000000000000000005f82015250565b5f610e7c600e83610d41565b9150610e8782610e48565b602082019050919050565b5f6020820190508181035f830152610ea981610e70565b9050919050565b7f4e487b71000000000000000000000000000000000000000000000000000000005f52601160045260245ffd5b5f610ee782610ad2565b9150610ef283610ad2565b9250828201905080821115610f0a57610f09610eb0565b5b92915050565b7f706c616e20696e616374697665000000000000000000000000000000000000005f82015250565b5f610f44600d83610d41565b9150610f4f82610f10565b602082019050919050565b5f6020820190508181035f830152610f7181610f38565b9050919050565b7f65787069727920696e20706173740000000000000000000000000000000000005f82015250565b5f610fac600e83610d41565b9150610fb782610f78565b602082019050919050565b5f6020820190508181035f830152610fd981610fa0565b905091905056fea26469706673582212207204e5920e12f2deb07f3dfe8ae0892e68b08f1ee726524cd63263ec0aa73b1064736f6c63430008180033","linkReferences":{}},"methodIdentifiers":{"createPlan(bytes32,uint256,uint256)":"83a6aa62","extendSubscription(address,bytes32,uint256)":"ef3b6f19","isActive(address,bytes32)":"84a8f0ce","owner()":"8da5cb5b","plans(bytes32)":"aa4f2653","recordUsage(address,bytes32,uint256)":"9af2658d","renounceOwnership()":"715018a6","subscribe(address,bytes32,uint256)":"fa4408a4","subscriptions(address,bytes32)":"61039578","transferOwnership(address)":"f2fde38b","updatePlan(bytes32,uint256,uint256,bool)":"bc904fda"},"id":24}